:100000000C9486000C94A7000C94A7000C94A700F5
:100010000C94A7000C94A7000C94A7000C94A700C4
:100020000C94A7000C94A7000C94A7000C94A700B4
:100030000C94A7000C94A7000C94A7000C94A700A4
:100040000C94A7000C94A7000C94A7000C94A70094
:100050000C94A7000C94A7000C94A7000C94A70084
:100060000C94A7000C94A7000C94A7000C94A70074
:100070000C94A7000C94A7000C94A7000C94A70064
:100080000C94A7000C94A7000C94A7000C94A70054
:100090000C94A7000C94A7000C94A7000C94A70044
:1000A0000C94A7000C94A7000C94A7000C94A70034
:1000B0000C94A7000C94A7000C94A7000C94A70024
:1000C0000C94A7000C94A7000C94A7000C94A70014
:1000D0000C94A7000C94A7000C94A7000C94A70004
:1000E0000C94A70011031D03290360039703AE03BB
:1000F000CF032E048D04EC040E05300567059E0524
:10010000B505CC0504065B06A906B50611241FBE7D
:10011000CFEFD1E2DEBFCDBF00E00CBF12E0A0E028
:10012000B2E0E2E3FEE000E00BBF02C007900D92F8
:10013000A030B107D9F712E0A0E0B2E001C01D92F3
:10014000AB31B107E1F70E94C0020C9417070C9481
:10015000000086E69EE00197F1F700004098419884
:1001600080E388B9429AEFEFF7E43197F1F700C0E6
:1001700000004298E6E6FEE03197F1F70000409873
:10018000419888B9429AEFEFF7E43197F1F700C050
:1001900000004298E6E6FEE03197F1F70000409853
:1001A000419888B9429A8FEF97E40197F1F700C020
:1001B00000004298E6E6FEE03197F1F70000409833
:1001C000419880E288B9429A8FEF97E40197F1F75E
:1001D00000C000004298089598B19F7098B998B1F6
:1001E000282F207F922B98B940984198429AEFEFA0
:1001F000F7E43197F1F700C00000429898B19F7082
:1002000098B998B18295807F892B88B94098419898
:10021000429A8FEF97E40197F1F700C000004298EF
:10022000089586E69EE00197F1F7000088E20E94BB
:10023000EC0081E00E94EC0086E00E94EC008EE081
:100240000E94EC0080E80E94EC00089598B19F7035
:1002500098B998B1282F207F922B98B9409A41984D
:10026000429AEFEFF7E43197F1F700C000004298AF
:1002700098B19F7098B998B18295807F892B88B981
:10028000409A4198429A8FEF97E40197F1F700C0A6
:1002900000004298089580E80E94EC000895CF93F2
:1002A000DF93EC018881882331F021960E9426019A
:1002B00089918823D9F7DF91CF910895823079F021
:1002C000833018F48130C9F405C0833069F084307C
:1002D000A1F40FC0862F81580E94EC000895862F4C
:1002E00081540E94EC000895862F8D560E94EC00E8
:1002F0000895862F8D520E94EC0008950F931F934E
:10030000CF93DF938A01E901882311F0662319F462
:100310000E944B0102C00E945E01C530D10571F4FC
:10032000C80160E177E20E940307CB01C096909379
:100330000B0280930A020E94260103C0C430D1053B
:10034000B9F4C80168EE73E00E940307CB01709313
:100350000D0260930C026AE070E00E940307C096F1
:1003600090931802809317020E94260181E001C039
:1003700080E0C330D10511F08130B1F4C80164E6EA
:1003800070E00E940307CB0170930D0260930C0292
:100390006AE070E00E940307C09690931402809375
:1003A00013020E94260181E0C230D10511F0813094
:1003B000B1F42AE030E0C801B9010E940307CB0183
:1003C00070930D0260930C02B9010E940307C0965E
:1003D00090931202809311020E94260181E0C130A5
:1003E000D10511F0813061F4C8016AE070E00E942B
:1003F0000307C09690931602809315020E9426016F
:10040000C630D1051CF085E40E942601DF91CF9112
:100410001F910F91089587B1876F87B988B1807850
:1004200088B9089510BA11BA109207011092080104
:10043000089581B18F6081B982B1807F82B9EAE08D
:10044000F1E0808188618083EBE0F1E08081886168
:10045000808308950E940B020E9412020E941902DA
:100460000895E1E2F1E010828FEF8093250191E0A1
:1004700090932401109229018093280110922B015E
:1004800080932A0110922D0180932C0189EA809398
:1004900020018BE080830895EAE7F0E0108210925B
:1004A0007B0080E280937C0080E880BF86E88083C8
:1004B0000895883018F098E090937B0087708062F0
:1004C00080937C00EAE7F0E0808180648083808113
:1004D00084FFFDCF80917900EAE7F0E090819061A0
:1004E000908310927B000895CF93DF93D82FC62F6F
:1004F000842F0E945902482F80930E028D2F6C2F5B
:1005000050E023E030E00E947E01DF91CF9108951A
:100510008093280160932A01089592B1907F8F7093
:10052000982B92B9089586E00E948D0282E862E8D5
:100530000E948802089586E00E948D028AE068EC9D
:100540000E948802089586E00E948D0288EC6AE08D
:100550000E948802089580E00E948D02089586B16D
:10056000886088B9089586B1877F88B90895F8941E
:100570000E942A020E944C020E943102789408953F
:100580000E94B7020E94A9000E94110183E00E940C
:1005900059028093080282E00E9459028093070268
:1005A00081E00E9459028093060284E00E94590271
:1005B0008093050288E00E94590280930402109201
:1005C000090280910702893248F08091080289323D
:1005D00058F480910602893238F4E3C3809108020E
:1005E000893208F0EFC3EAC3409103024F5F4093A2
:1005F000030282E061E050E023E030E00E947E01EF
:100600008091030290E001978431910508F0C5C301
:100610008E589F4FFC01EE0FFF1F0590F491E02DC7
:1006200019940E9493028FEF9FE7A3E481509040BA
:10063000A040E1F700C00000B0C30E9493028FEF1A
:100640009FE7A6E181509040A040E1F700C0000084
:10065000A4C30E9493028FEF9FEFA8E081509040C7
:10066000A040E1F700C000000E94AB028FEF9FE7BF
:10067000A6E181509040A040E1F700C000008091C9
:100680000502823308F089C30E94AF028FEF9FEF0B
:10069000ACE281509040A040E1F700C000000E9411
:1006A000B3028FEF9FEFACE281509040A040E1F7A2
:1006B00000C00000809100028F5F809300026DC334
:1006C0000E9493028FEF9FEFA8E081509040A040DE
:1006D000E1F700C000000E94AB028FEF9FE7A6E1A8
:1006E00081509040A040E1F700C0000080910502D9
:1006F000823308F052C30E94AF028FEF9FEFACE24B
:1007000081509040A040E1F700C000000E94B30279
:100710008FEF9FEFACE281509040A040E1F700C026
:100720000000809100028F5F8093000236C30E9418
:10073000AB028FEF9FE7A6E181509040A040E1F728
:1007400000C000000E949B028FEF9FEFA7E4815042
:100750009040A040E1F700C000001FC30E94930238
:100760008CEC9CE4A6E081509040A040E1F700C0F2
:100770000E94AB028FEF9FE7A6E181509040A0401E
:10078000E1F700C000000E949B028FEF9FEBA5E401
:1007900081509040A040E1F700C00000FEC20E94DE
:1007A000930286E696EEA9E081509040A040E1F7E2
:1007B0000E94AB028FEF9FEBAFE081509040A040D2
:1007C000E1F700C0000080910502823330F580918E
:1007D0000402823338F5C2E0D0E0D0931002C09317
:1007E0000F020E94AF028FEF9FEFACE2815090406A
:1007F000A040E1F700C000000E94B3028FEF9FEF1E
:10080000ACE281509040A040E1F700C00000809130
:1008100001028E5F80930102E0CF80910402823357
:1008200008F0BBC20E94AF028FEF9FEFACE2815095
:100830009040A040E1F700C000000E94B3028FEF9B
:100840009FEFACE281509040A040E1F700C0000073
:10085000809101028F5F809301029FC20E949302E8
:1008600086E696EEA9E081509040A040E1F70E9414
:10087000AB028FEF9FEBAFE081509040A040E1F7DB
:1008800000C0000080910502823330F5809104029F
:10089000823338F5C2E0D0E0D0931002C0930F024B
:1008A0000E94AF028FEF9FEFACE281509040A040DA
:1008B000E1F700C000000E94B3028FEF9FEFACE2AF
:1008C00081509040A040E1F700C0000080910002FC
:1008D0008E5F80930002E0CF80910402823308F0A3
:1008E0005CC20E94AF028FEF9FEFACE2815090405C
:1008F000A040E1F700C000000E94B3028FEF9FEF1D
:10090000ACE281509040A040E1F700C0000080912F
:1009100000028F5F8093000240C20E94930286E62D
:1009200096EEA9E081509040A040E1F70E94AB0212
:100930008FEF9FEBAFE081509040A040E1F700C007
:10094000000080910502823330F5809104028233E9
:1009500038F5C2E0D0E0D0931002C0930F020E949D
:10096000AF028FEF9FEFACE281509040A040E1F7E3
:1009700000C000000E94B3028FEF9FEFACE28150F5
:100980009040A040E1F700C00000809102028E5F1D
:1009900080930202E0CF80910402823308F0FDC10F
:1009A0000E94AF028FEF9FEFACE281509040A040D9
:1009B000E1F700C000000E94B3028FEF9FEFACE2AE
:1009C00081509040A040E1F700C0000080910202F9
:1009D0008F5F80930202E1C10E9493028FEF9FEB31
:1009E000A6E081509040A040E1F700C000000E94C6
:1009F000AB028FEF9FE7A6E181509040A040E1F766
:100A000000C000000E94A3028FEF9FEFA7E4815077
:100A10009040A040E1F700C00000BFC10E949302D7
:100A20008FEF9FEBA6E081509040A040E1F700C01F
:100A300000000E94AB028FEF9FE7A6E1815090403B
:100A4000A040E1F700C000000E94A3028FEF9FEFDB
:100A5000A7E481509040A040E1F700C000009DC194
:100A60000E9493028FEF9FEFA8E081509040A0403A
:100A7000E1F700C000000E94AB028FEF9FE7A6E104
:100A800081509040A040E1F700C000008091040236
:100A9000823308F082C10E94AF028FEF9FEFACE279
:100AA00081509040A040E1F700C000000E94B302D6
:100AB0008FEF9FEFACE281509040A040E1F700C083
:100AC0000000809102028F5F8093020266C10E9443
:100AD00093028FEF9FEFA8E081509040A040E1F794
:100AE00000C000000E94AB028FEF9FE7A6E181509B
:100AF0009040A040E1F700C00000809104028233E2
:100B000008F04BC10E94AF028FEF9FEFACE2815023
:100B10009040A040E1F700C000000E94B3028FEFB8
:100B20009FEFACE281509040A040E1F700C0000090
:100B3000809101028F5F809301022FC10E94AB025E
:100B40008FEF9FE7A6E181509040A040E1F700C001
:100B500000000E949B028FEF9FEFA7E4815090401E
:100B6000A040E1F700C0000018C10E94AB028FEF67
:100B70009FE7A6E181509040A040E1F700C000004F
:100B80000E949B028FEF9FEFA7E481509040A0400E
:100B9000E1F700C0000001C10E9493028FEF9FEFB8
:100BA000A8E081509040A040E1F700C000000E9402
:100BB000AB028FEF9FE7A6E181509040A040E1F7A4
:100BC00000C0000080910202882309F4E6C0C0E062
:100BD0000E94AF028FEF9FEFACE281509040A040A7
:100BE000E1F700C000000E94B3028FEF9FEFACE27C
:100BF00081509040A040E1F700C00000CF5F80919D
:100C00000202C81728F3C9C00E9493028FEF9FEF1A
:100C1000A8E081509040A040E1F700C000000E9491
:100C2000AB028FEF9FE7A6E181509040A040E1F733
:100C300000C0000080910102882309F4AEC0C0E02A
:100C40000E94AF028FEF9FEFACE281509040A04036
:100C5000E1F700C000000E94B3028FEF9FEFACE20B
:100C600081509040A040E1F700C00000CF5F80912C
:100C70000102C81728F3882309F48FC0C0E00E943E
:100C8000AF028FEF9FEFACE281509040A040E1F7C0
:100C900000C000000E94B3028FEF9FEFACE28150D2
:100CA0009040A040E1F700C00000CF5F80910102BA
:100CB000C81728F372C00E9493028FEF9FEFA8E03D
:100CC00081509040A040E1F700C000000E94AB02BC
:100CD0008FEF9FE7A6E181509040A040E1F700C070
:100CE00000000E9493028FEF9FEFA8E08150904098
:100CF000A040E1F700C000000E94AB028FEF9FE729
:100D0000A6E181509040A040E1F700C00000809132
:100D10000002882309F441C0C0E00E94AF028FEFB7
:100D20009FEFACE281509040A040E1F700C000008E
:100D30000E94B3028FEF9FEFACE281509040A04041
:100D4000E1F700C00000CF5F80910002C81728F3D0
:100D500024C00E9493028FEF9FE7A6E1815090404C
:100D6000A040E1F700C0000018C00E9493028FEF7E
:100D70009FE7A6E181509040A040E1F700C000004D
:100D80000E94AB028FEF9FEFA2E5B7E08150904049
:100D9000A040B040D9F700C000008091070289321E
:100DA00068F080910902882349F481E08093090268
:100DB0000E9493028CE86CE80E94880280910802ED
:100DC000893268F080910902882349F481E0809398
:100DD00009020E94930287E364E60E9488028091E0
:100DE0000602893208F4D2CB80910902882309F0E7
:100DF000CDCB81E0809309020E94930284E667E3F1
:100E00000E948802C3CBAA1BBB1B51E107C0AA1FCB
:100E1000BB1FA617B70710F0A61BB70B881F991F9B
:100E20005A95A9F780959095BC01CD010895F89445
:020E3000FFCFF2
:00000001FF
